:020000040000fa
:080000000001040000000000f3
:020000040000fa
:100200000f8020000eff20000e018800000000007b
:100210000c00070000a920000100200011000700c9
:10022000000020000000e000020032000000020098
:100230000000000082080200000000000040da0018
:100240000000fe004440a900400420000000e0003f
:100250000300320000002000a00188004440a800f4
:100260000000060091018800800078000000eb008b
:1002700015003700e280400032a0b4009101ba00be
:10028000e280400032a0b4009102ba00e280400057
:1002900032a0b4000002eb00472bde00f507b200ed
:1002a000602ce10004003a000059eb008301e900f2
:1002b000fdff3e00040037006128e100010032002c
:1002c0000082eb00040007001101ba000200e00008
:1002d000e8ff3a00000006003159ba008301e90046
:1002e0000c0032002159ba008301e90008003200f5
:1002f0000400e00003003a00e280400032a0b400b5
:10030000f5ff370011d9ba008301e900faff3a007e
:100310008100e800e180400032a0b4000000060047
:080320000040da000000fe00bd
:020000040000fa
:1000080090010000900100009001000090010000a4
:100018009001000090010000900100009001000094
:100028009001000090010000900100009001000084
:100038009001000090010000900100009001000074
:100048009001000090010000900100009001000064
:100058009001000090010000900100009001000054
:100068009001000090010000900100009001000044
:100078009001000090010000900100009001000034
:100088009001000090010000900100009001000024
:100098009001000090010000900100009001000014
:1000a8009001000090010000900100009001000004
:1000b80090010000900100009001000090010000f4
:1000c80090010000900100009001000090010000e4
:1000d80090010000900100009001000090010000d4
:1000e80090010000900100009001000090010000c4
:0800f8009001000090010000de
:020000040000fa
:1001080090010000900100009001000090010000a3
:100118009001000090010000900100009001000093
:100128009001000090010000900100009001000083
:100138009001000090010000900100009001000073
:100148009001000090010000900100009001000063
:100158009001000090010000900100009001000053
:100168009001000090010000900100009001000043
:100178009001000090010000900100009001000033
:100188009001000090010000900100009001000023
:100198009001000090010000900100009001000013
:1001a8009001000090010000900100009001000003
:1001b80090010000900100009001000090010000f3
:1001c80090010000900100009001000090010000e3
:1001d80090010000900100009001000090010000d3
:1001e80090010000900100009001000090010000c3
:0801f8009001000090010000dd
:020000040000fa
:100328000a0a00001f1100001b0e00000404000050
:10033800000a00001f1f00000e040000000000005b
:100348002049000074270000732000006d61000040
:10035800676900006321000020000000446f00006e
:100368006e27000074200000756e0000706c00009d
:1003780075670000212000000031000000320000f5
:10038800002b00000033000000340000002d0000a6
:10039800003500000036000000780000002f000043
:0803a80000200000000000002d
:020000040000fa
:1003b0000000fa00c6c2a900cde2a900d902a90036
:1003c0004d04070000c3b3003001070046040700d6
:1003d00000c3b3002d0107003f04070000c3b300b2
:1003e0002a0107008f00070000c2b30027010700a1
:1003f0008c00070080c2b300a90007008900070035
:1004000080c0b300a60007008600070010c0b3003c
:10041000a30007008300070060c0b300a00007002e
:10042000800007007f000700e0c0b3009c000700c9
:100430007c0007000080fa00000006000000fa00bf
:1004400010c0b30096000700760007000080fa0095
:10045000000006000000fa0020c0b3009000070072
:10046000700007000080fa00000006000000fa009b
:1004700000c8b3008a0007006a0007000080fa0085
:10048000000006000000fa0000ccb3008400070062
:10049000640007000080fa00000006000200fa0075
:1004a000000f7800050037005e0007001e0078008e
:1004b000104078003a0107001e0fe8001e00780087
:1004c000104078000004e000f7ff3a000080fa00d6
:1004d000000006000000fa0000c1b3007000070031
:1004e000500007000080fa00000006000000fa003b
:1004f00040c1b3006a0007004a0007000080fa000c
:10050000000006000000fa0080c1b300640007008c
:10051000440007000080fa00000006000000fa0016
:10052000c0c1b3005e0007003e0007000080fa0073
:10053000000006000000fa00c0c0b3005800070029
:10054000380007000080fa00000006000000fa00f2
:10055000e0c0b30052000700320007000080fa003c
:10056000000006000000fa00f0c0b3004c000700d5
:100570002c0007000080fa00000006000200fa00cc
:10058000004f780000c8b3001e4070004400070010
:10059000240007000080fa00000006000600fa00b0
:1005a00020479800210798002e4090000000fb0093
:1005b0004300dd008040780000c4b30000c070003c
:1005c00037000700170007000000eb00000f78005d
:1005d000070037009e0078002e0090000080400049
:1005e00010407800ee0007000e0007001e0fe80024
:1005f000700020009e0f1000f6ff360095ff0700e8
:100600000080fa00000006000200fa00004f7800a7
:100610001e407800e2000700020007000080fa0098
:10062000000006000200fa0010c0b300004f78007e
:10063000d262a800d242a800d222a800d202a8000a
:10064000a1030700d1e2a900dd02a8009e03070074
:100650009d0307000d003700cac2a8009a030700d7
:1006600099030700d4c2bf000080fb004300de00f6
:1006700061406000004f7800930307009203070079
:10068000cac2a900900307008f0307001e04e00000
:10069000f1ff3a00dd02a9000080fa000000060028
:1006a0000200fa00004f7800d1e2a900dd02a900a3
:1006b000d262a900d242a900d222a900d202a90086
:1006c0009e00fb0000082000008060004780de00e4
:1006d00061406000614060004301dd00612d200049
:1006e0009140780070cfb30000c0600002407000fd
:1006f000d6e2b7009e00fb000004200000806000ee
:100700004680de0061406000614060004201dd0023
:10071000612d200091407800b0cfb30000c0600090
:1007200002407000d6e2b7009e00fb0000022000ed
:10073000008060004580de00614060006140600034
:1007400000414000612d200091407800d0cfb300df
:1007500000c0600002407000d6e2b7001e00fb003f
:10076000700060004480de00614060006141600014
:10077000612d200091407800e0cfb30000c0600000
:1007800002407000d6e2b7004f030700cac2a800bb
:100790004d030700cac2a9004b030700d1e2a9001c
:1007a000dd02a9001e00fb00680060004380de003f
:1007b00061406000614060004301dd00612d200068
:1007c0009140780070cfb30000c06000024070001c
:1007d000d6e2b7001e00fb00640060004280de002d
:1007e00061406000614060004201dd00612d200039
:1007f00091407800b0cfb30000c0600002407000ac
:10080000d6e2b7001e00fb00620060000080d1004d
:10081000614060006140600000414000612d2000a7
:1008200091407800d0cfb30000c06000024070005b
:10083000d6e2b7001e407800614060006140600071
:100840006140600061416000612d200091407800ae
:10085000e0cfb30000c0600002407000d6e2b700f5
:1008600019030700cac2a80017030700cac2a900db
:1008700015030700d262a800d242a800d222a80025
:10088000d202a8000080fa00000006000200fa0070
:10089000004f7800d1e2a900dd02a900d262a900d0
:1008a000d242a900d222a900d202a9009e00fb00d8
:1008b00000082000008060004780de00614060008a
:1008c000614060004301dd00612d2000914078000f
:1008d00070cfb30000c0600002407000d6e2b700e5
:1008e0009e00fb0000042000008060004680de00c7
:1008f00061406000614060004201dd00612d200028
:1009000091407800b0cfb30000c06000024070009a
:10091000d6e2b7009e00fb000002200000806000cd
:100920004580de00614060006140600000414000a1
:10093000612d200091407800d0cfb30000c060004e
:1009400002407000d6e2b7001e00fb00700060009d
:100950004480de006140600061416000612d200044
:1009600091407800e0cfb30000c06000024070000a
:10097000d6e2b700d4020700cac2a800d20207001c
:10098000cac2a900d0020700d262a800d242a800c1
:10099000d222a800d202a8000080fa0000000600bf
:1009a0000200fa00004f7800d1e2a800dd02a900a1
:1009b000d242a900d262a900d222a900d202a90083
:1009c0009e00fb0000082000008060004780de00e1
:1009d00061406000614060004301dd00612d200046
:1009e0009140780070cfb30000c0600002407000fa
:1009f000d6e2b7009e00fb000004200000806000eb
:100a00004680de0061406000614060004201dd0020
:100a1000612d200091407800b0cfb30000c060008d
:100a200002407000d6e2b7009e00fb0000022000ea
:100a3000008060004580de00614060006140600031
:100a400000414000612d200091407800d0cfb300dc
:100a500000c0600002407000d6e2b7001e00fb003c
:100a6000700060004480de00614060006141600011
:100a7000612d200091407800e0cfb30000c06000fd
:100a800002407000d6e2b7008f020700cac2a80079
:100a90008d020700cac2a9008b020700d1e2a8009c
:100aa000dd02a9001e00fb00680060004380de003c
:100ab00061406000614060004301dd00612d200065
:100ac0009140780070cfb30000c060000240700019
:100ad000d6e2b7001e00fb00640060004280de002a
:100ae00061406000614060004201dd00612d200036
:100af00091407800b0cfb30000c0600002407000a9
:100b0000d6e2b7001e00fb00620060000080d1004a
:100b1000614060006140600000414000612d2000a4
:100b200091407800d0cfb30000c060000240700058
:100b3000d6e2b7001e40780061406000614060006e
:100b40006140600061416000612d200091407800ab
:100b5000e0cfb30000c0600002407000d6e2b700f2
:100b600059020700cac2a80057020700cac2a9005a
:100b700055020700d262a800d242a800d222a800e3
:100b8000d202a800dd02a900d1e2a9000080fa008b
:100b9000000006000000fa00c602a900c622a90053
:100ba000c642a900d202a800d222a800d242a800c0
:100bb000d262a8000080fa00000006000200fa00dd
:100bc000c602a900c622a800c642a800ca02a900ff
:100bd000ca22a800ca42a80037020700d4c2bf0038
:100be000614060000004e00003003a000000eb00f8
:100bf000000f78005a003700d4c2bf006240600086
:100c00000004e00003003a0030002000000f7800ec
:100c100053003700d4c2bf00644060000004e0000d
:100c200003003a0060002000000f78004c003700fd
:100c3000d4c2bf00684060000004e00003003a0036
:100c400090002000000f780045003700c602a80081
:100c5000c622a900c642a800ca02a800ca22a9004a
:100c6000ca42a80014020700d4c2bf00614060005d
:100c70000004e00003003a0010002000000f78009c
:100c800037003700d4c2bf00624060000004e000bb
:100c900003003a0040002000000f780030003700c9
:100ca000d4c2bf00644060000004e00003003a00ca
:100cb00070002000000f780029003700d4c2bf0068
:100cc000684060000004e00003003a00a00020003b
:100cd000000f780022003700c602a800c622a80034
:100ce000c642a900ca02a800ca22a800ca42a90096
:100cf000f1010700d4c2bf00614060000004e000c1
:100d000003003a0020002000000f78001400370094
:100d1000d4c2bf00624060000004e00003003a005b
:100d200050002000000f78000d003700d4c2bf0033
:100d3000644060000004e00003003a0080002000ee
:100d4000000f780006003700d4c2bf006840600082
:100d50000004e0009aff3a00b0002000000f780085
:100d60001e0078000080fa00000006000200fa0071
:100d7000c602a900c622a800c642a800ca02a9004d
:100d8000ca22a800ca42a800cb010700d4c2bf00f3
:100d9000614060000004e00003003a000000eb0046
:100da000000f78005d003700d4c2bf0062406000d1
:100db0000004e00003003a0030002000000f78003b
:100dc00056003700d4c2bf00644060000004e00059
:100dd00003003a0060002000000f78004f00370049
:100de000d4c2bf00684060000004e00003003a0085
:100df00090002000000f780048003700c602a800cd
:100e0000c622a900c642a800ca02a800ca22a90098
:100e1000ca42a800a8010700d4c2bf006140600018
:100e20000004e00003003a0010002000000f7800ea
:100e30003a003700d4c2bf00624060000004e00006
:100e400003003a0040002000000f78003300370014
:100e5000d4c2bf00644060000004e00003003a0018
:100e600070002000000f78002c003700d4c2bf00b3
:100e7000684060000004e00003003a00a000200089
:100e8000000f780025003700c602a800c622a8007f
:100e9000c642a900ca02a800ca22a800ca42a900e4
:100ea00085010700d4c2bf00614060000004e0007b
:100eb00003003a0020002000000f780017003700e0
:100ec000d4c2bf00624060000004e00003003a00aa
:100ed00050002000000f780010003700d4c2bf007f
:100ee000644060000004e00003003a00800020003d
:100ef000000f780009003700d4c2bf0068406000ce
:100f00000004e00003003a00b0002000000f780069
:100f100002003700f00f2000000f78001e0078005c
:100f20000080fa00000006000200fa00000f7800be
:100f3000c602a900c622a800c642a800ca02a9008b
:100f4000ca22a800ca42a8005b010700d4c2bf00a1
:100f5000614060000004e00003003a009e00780059
:100f600010c0b30080487800d4c2bf006240600067
:100f70000004e00004003a001e007800e300400096
:100f800010c0b30080487800d4c2bf006440600045
:100f90000004e00004003a001e007800e600400073
:100fa00010c0b30080487800d4c2bf006840600021
:100fb0000004e00004003a001e007800e900400050
:100fc00010c0b30080487800c602a800c622a9005d
:100fd000c642a800ca02a800ca22a900ca42a800a4
:100fe00035010700d4c2bf00614060000004e0008a
:100ff00003003a009e00e80010c0b300804878006b
:10100000d4c2bf00624060000004e00004003a0067
:101010001e007800e400400010c0b3008048780053
:10102000d4c2bf00644060000004e00004003a0045
:101030001e007800e700400010c0b3008048780030
:10104000d4c2bf00684060000004e00004003a0021
:101050001e007800ea00400010c0b300804878000d
:10106000c602a800c622a800c642a900ca02a8005b
:10107000ca22a800ca42a9000f010700d4c2bf00bb
:10108000614060000004e00003003a009e80e80038
:1010900010c0b30080487800d4c2bf006240600036
:1010a0000004e00004003a001e007800e500400063
:1010b00010c0b30080487800d4c2bf006440600014
:1010c0000004e00004003a001e007800e800400040
:1010d00010c0b30080487800d4c2bf0068406000f0
:1010e0000004e00004003a001e007800eb0040001d
:1010f00010c0b30080487800f00f20000080fa0094
:10110000000006001800fa0000c0eb00204798001d
:101110000000eb00000f78009efe0700a4fc070013
:1011200064004700c1192800070009003158780001
:101130008000b1006c004700421928000700090038
:10114000325878008000b100e40047000040eb0016
:1011500012fd0700ec00470010c0b3000ffd0700b0
:10116000401a2800cdfc07000040eb0026fd0700d8
:10117000c4fc0700201b2800c8fc070010c0b300f7
:1011800021fd0700f0012000000f7800000037006b
:10119000f6fe0700304798003e409000e14f4000c7
:1011a00067003200be4090002e40900080cf50007b
:1011b00063003200be419000234798003e409000fb
:1011c000e94f5000440032003e409000ea4f50008a
:1011d00041003200000220009e0f1000ecff3200a0
:1011e0003e4090000000fb006101b900220f980012
:1011f000330f9800b0002000010020002e0990005d
:10120000be099000800f5100818f59002c003e00d4
:101210002e089000be089000006001000b0037000f
:101220000d0037000f0037001100370013003700a2
:101230001500370017003700190037001b00370072
:101240001f0037001e0037001b003700101c28004d
:1012500092fc07001a003700301c28008ffc0700a2
:1012600017003700501c28008cfc070014003700c2
:10127000701c280089fc070011003700901c280012
:1012800086fc07000e003700b01c280083fc070016
:101290000b003700d01c280080fc07000800370036
:1012a000f01c28007dfc070005003700101d2800f9
:1012b0007afc070002003700301d280077fc070089
:1012c000f10020009e8f100001003a006dfc070025
:1012d0001e0fe800aeff37003e409000ea4f50007e
:1012e000120032001e00e000a9ff320002012000bf
:1012f0009e0f110007003a00f0c0b3009ffc0700ea
:10130000501d280065fc070072fc07001e0fe90055
:101310009fff37006ffc0700501d28005ffc07008f
:101320006cfc07001e0fe90099ff370043fc070023
:1013300048fc07000000eb00000f780094ff370026
:10134000be419000234798006b00070090ff3700d4
:101350000000fa00d802a900d822a900d842a900aa
:10136000d862a900d882a900d8a2a9000080fa00fa
:10137000000006000400fa00000f78001e0078004c
:10138000100798001e009000e20f50001800320075
:101390001e009000e20f500007003e001e0090006b
:1013a0000000e0000e0032001e009000e10f50002f
:1013b0000d003200150037001e009000e40f5000b1
:1013c0000f0032001e009000e40f50000a003900a8
:1013d0001e009000e50f50000b0032000b0037009c
:1013e000dc02a80009003700dc22a8000700370053
:1013f000dc42a80005003700dc62a80003003700cb
:10140000dc82a80001003700dca2a8000080fa00fe
:10141000000006000400fa00000f78001e007800ab
:10142000100798001e009000e20f500018003200d4
:101430001e009000e20f500007003e001e009000ca
:101440000000e0000e0032001e009000e10f50008e
:101450000d003200150037001e009000e40f500010
:101460000f0032001e009000e40f50000a00390007
:101470001e009000e50f50000b0032000b003700fb
:10148000dc02a90009003700dc22a90007003700b0
:10149000dc42a90005003700dc62a9000300370028
:1014a000dc82a90001003700dca2a9000080fa005c
:1014b0000000060000000600310620008100e9005f
:1014c000feff3a0000000600610c20008100e900e8
:1014d000feff3a0000000600215c20008100e900c8
:1014e000feff3a000000060001002c008100e90028
:1014f000feff3a000000060001002c008100e90018
:10150000feff3a0001002c008100e900feff3a00d6
:1015100001002c008100e900feff3a0000000600f7
:020000040000fa
:0415200000000000c7
:00000001FF
