:020000040000fa
:080000000001040000000000f3
:020000040000fa
:100200000f8020000eff20000e018800000000007b
:100210000c000700a0a02000010020001100070032
:10022000000020000000e000020032000000020098
:10023000000000001a080200000000000040da0080
:100240000000fe004440a900600120000000e00022
:100250000300320000002000a00188004440a800f4
:100260000000060091018800800078000000eb008b
:1002700015003700e280400032a0b4009101ba00be
:10028000e280400032a0b4009102ba00e280400057
:1002900032a0b4000002eb00472bde00f507b200ed
:1002a000602ce10004003a000059eb008301e900f2
:1002b000fdff3e00040037006128e100010032002c
:1002c0000082eb00040007001101ba000200e00008
:1002d000e8ff3a00000006003159ba008301e90046
:1002e0000c0032002159ba008301e90008003200f5
:1002f0000400e00003003a00e280400032a0b400b5
:10030000f5ff370011d9ba008301e900faff3a007e
:100310008100e800e180400032a0b4000000060047
:080320000040da000000fe00bd
:020000040000fa
:1000080090010000900100009001000090010000a4
:100018009001000090010000900100009001000094
:100028009001000090010000900100009001000084
:100038009001000090010000900100009001000074
:100048009001000090010000900100009001000064
:100058009001000090010000900100009001000054
:100068009001000090010000900100009001000044
:100078009001000090010000900100009001000034
:100088009001000090010000900100009001000024
:100098009001000090010000900100009001000014
:1000a8009001000090010000900100009001000004
:1000b80090010000900100009001000090010000f4
:1000c80090010000900100009001000090010000e4
:1000d80090010000900100009001000090010000d4
:1000e80090010000900100009001000090010000c4
:0800f8009001000090010000de
:020000040000fa
:1001080090010000900100009001000090010000a3
:100118009001000090010000900100009001000093
:100128009001000090010000900100009001000083
:100138009001000090010000900100009001000073
:100148009001000090010000900100009001000063
:100158009001000090010000900100009001000053
:100168009001000090010000900100009001000043
:100178009001000090010000900100009001000033
:100188009001000090010000900100009001000023
:100198009001000090010000900100009001000013
:1001a8009001000090010000900100009001000003
:1001b80090010000900100009001000090010000f3
:1001c80090010000900100009001000090010000e3
:1001d80090010000900100009001000090010000d3
:1001e80090010000900100009001000090010000c3
:0801f8009001000090010000dd
:020000040000fa
:1003280031000000320000002b0000003300000004
:10033800340000002d0000003500000036000000e9
:0c034800780000002f00000020000000e2
:020000040000fa
:100354000000fa00c6c2a900cde2a900d902a90092
:100364002104070000c3b300130107001a040700a7
:1003740000c3b300100107001304070000c3b30057
:100384000d0107007200070000c2b3000a01070054
:100394006f00070080c2b3008c0007006c000700e8
:1003a40080c0b300890007006900070010c0b300d3
:1003b400860007006600070060c0b30083000700e2
:1003c4006300070062000700e0c0b3007f0007007d
:1003d4005f0007000080fa00000006000000fa0039
:1003e40010c0b30079000700590007000080fa002c
:1003f400000006000000fa0020c0b30073000700ec
:10040400530007000080fa00000006000000fa0014
:1004140000c8b3006d0007004d0007000080fa001b
:10042400000006000000fa0000ccb30067000700db
:10043400470007000080fa00000006000200fa00ee
:10044400000f780005003700410007001e00780007
:10045400104078001d0107001e0fe8001e00780000
:10046400104078000004e000f7ff3a000080fa0032
:10047400000006000000fa0000c1b30053000700aa
:10048400330007000080fa00000006000000fa00b4
:1004940040c1b3004d0007002d0007000080fa00a2
:1004a400000006000000fa0080c1b3004700070006
:1004b400270007000080fa00000006000000fa0090
:1004c400c0c1b30041000700210007000080fa000a
:1004d400000006000000fa00c0c0b3003b000700a3
:1004e4001b0007000080fa00000006000000fa006c
:1004f400e0c0b30035000700150007000080fa00d3
:10050400000006000000fa00f0c0b3002f0007004e
:100514000f0007000080fa00000006000200fa0045
:10052400000f7800f00420009e0f100006003e002b
:100534001e0078008040780000c8b30000c070003e
:1005440022000700020007000080fa0000000600f5
:100554000200fa0010c0b300004f7800d262a80075
:10056400d242a800d222a800d202a8009203070017
:10057400d1e2a900dd02a8008f0307008e03070063
:100584000d003700cac2a8008b0307008a030700c6
:10059400d4c2bf000080fb004300de006140600065
:1005a400004f78008403070083030700cac2a90030
:1005b40081030700800307001e04e000f1ff3a00f6
:1005c400dd02a9000080fa00000006000200fa0023
:1005d400004f7800d1e2a900dd02a900d262a9008f
:1005e400d242a900d222a900d202a9009e00fb0097
:1005f40000082000008060004780de006140600049
:10060400614060004301dd00612d200091407800cd
:1006140070cfb30000c0600002407000d6e2b700a3
:100624009e00fb0000042000008060004680de0085
:1006340061406000614060004201dd00612d2000e6
:1006440091407800b0cfb30000c060000240700059
:10065400d6e2b7009e00fb0000022000008060008c
:100664004580de0061406000614060000041400060
:10067400612d200091407800d0cfb30000c060000d
:1006840002407000d6e2b7001e00fb00700060005c
:100694004480de006140600061416000612d200003
:1006a40091407800e0cfb30000c0600002407000c9
:1006b400d6e2b70040030700cac2a8003e03070001
:1006c400cac2a9003c030700d1e2a900dd02a900c7
:1006d4001e00fb00680060004380de006140600093
:1006e400614060004301dd00612d200091407800ed
:1006f40070cfb30000c0600002407000d6e2b700c3
:100704001e00fb00640060004280de006140600067
:10071400614060004201dd00612d200091407800bd
:10072400b0cfb30000c0600002407000d6e2b70052
:100734001e00fb00620060000080d1006140600088
:100744006140600000414000612d2000914078002c
:10075400d0cfb30000c0600002407000d6e2b70002
:100764001e407800614060006140600061406000ac
:1007740061416000612d200091407800e0cfb3001a
:1007840000c0600002407000d6e2b7000a03070010
:10079400cac2a80008030700cac2a90006030700ca
:1007a400d262a800d242a800d222a800d202a80095
:1007b4000080fa00000006000200fa00004f7800f2
:1007c400d1e2a900dd02a900d262a900d242a900a7
:1007d400d222a900d202a9009e00fb00000820003a
:1007e400008060004780de0061406000614060007e
:1007f4004301dd00612d20009140780070cfb300eb
:1008040000c0600002407000d6e2b7009e00fb000a
:1008140000042000008060004680de00614060002b
:10082400614060004201dd00612d200091407800ac
:10083400b0cfb30000c0600002407000d6e2b70041
:100844009e00fb0000022000008060004580de0066
:10085400614060006140600000414000612d200063
:1008640091407800d0cfb30000c060000240700017
:10087400d6e2b7001e00fb00700060004480de007a
:100884006140600061416000612d2000914078006a
:10089400e0cfb30000c0600002407000d6e2b700b1
:1008a400c5020700cac2a800c3020700cac2a90041
:1008b400c1020700d262a800d242a800d222a80036
:1008c400d202a8000080fa00000006000200fa002c
:1008d400004f7800d1e2a800dd02a900d242a900ad
:1008e400d262a900d222a900d202a9009e00fb0074
:1008f40000082000008060004780de006140600046
:10090400614060004301dd00612d200091407800ca
:1009140070cfb30000c0600002407000d6e2b700a0
:100924009e00fb0000042000008060004680de0082
:1009340061406000614060004201dd00612d2000e3
:1009440091407800b0cfb30000c060000240700056
:10095400d6e2b7009e00fb00000220000080600089
:100964004580de006140600061406000004140005d
:10097400612d200091407800d0cfb30000c060000a
:1009840002407000d6e2b7001e00fb007000600059
:100994004480de006140600061416000612d200000
:1009a40091407800e0cfb30000c0600002407000c6
:1009b400d6e2b70080020700cac2a8007e02070080
:1009c400cac2a9007c020700d1e2a800dd02a90086
:1009d4001e00fb00680060004380de006140600090
:1009e400614060004301dd00612d200091407800ea
:1009f40070cfb30000c0600002407000d6e2b700c0
:100a04001e00fb00640060004280de006140600064
:100a1400614060004201dd00612d200091407800ba
:100a2400b0cfb30000c0600002407000d6e2b7004f
:100a34001e00fb00620060000080d1006140600085
:100a44006140600000414000612d20009140780029
:100a5400d0cfb30000c0600002407000d6e2b700ff
:100a64001e407800614060006140600061406000a9
:100a740061416000612d200091407800e0cfb30017
:100a840000c0600002407000d6e2b7004a020700ce
:100a9400cac2a80048020700cac2a9004602070049
:100aa400d262a800d242a800d222a800d202a80092
:100ab400dd02a900d1e2a9000080fa0000000600ce
:100ac4000000fa00c602a900c622a900c642a90075
:100ad400d202a800d222a800d242a800d262a80062
:100ae4000080fa00000006000200fa00c602a90015
:100af400c622a800c642a800ca02a900ca22a800a9
:100b0400ca42a80028020700d4c2bf0061406000a6
:100b14000004e00003003a000000eb00000f78003e
:100b24005a003700d4c2bf00624060000004e000f5
:100b340003003a0030002000000f78005300370013
:100b4400d4c2bf00644060000004e00003003a0027
:100b540060002000000f78004c003700d4c2bf00b2
:100b6400684060000004e00003003a0090002000a8
:100b7400000f780045003700c602a800c622a9006d
:100b8400c642a800ca02a800ca22a900ca42a800f4
:100b940005020700d4c2bf00614060000004e00009
:100ba40003003a0010002000000f780037003700df
:100bb400d4c2bf00624060000004e00003003a00b9
:100bc40040002000000f780030003700d4c2bf007e
:100bd400644060000004e00003003a00700020005c
:100be400000f780029003700d4c2bf0068406000bd
:100bf4000004e00003003a00a0002000000f780089
:100c040022003700c602a800c622a800c642a900d6
:100c1400ca02a800ca22a800ca42a900e201070029
:100c2400d4c2bf00614060000004e00003003a0049
:100c340020002000000f780014003700d4c2bf0049
:100c4400624060000004e00003003a00500020000d
:100c5400000f78000d003700d4c2bf00644060006c
:100c64000004e00003003a0080002000000f780038
:100c740006003700d4c2bf00684060000004e000f2
:100c84009aff3a00b0002000000f78001e007800a0
:100c94000080fa00000006000200fa00c602a90063
:100ca400c622a800c642a800ca02a900ca22a800f7
:100cb400ca42a800bc010700d4c2bf006140600062
:100cc4000004e00003003a000000eb00000f78008d
:100cd4005d003700d4c2bf00624060000004e00041
:100ce40003003a0030002000000f7800560037005f
:100cf400d4c2bf00644060000004e00003003a0076
:100d040060002000000f78004f003700d4c2bf00fd
:100d1400684060000004e00003003a0090002000f6
:100d2400000f780048003700c602a800c622a900b8
:100d3400c642a800ca02a800ca22a900ca42a80042
:100d440099010700d4c2bf00614060000004e000c4
:100d540003003a0010002000000f78003a0037002a
:100d6400d4c2bf00624060000004e00003003a0007
:100d740040002000000f780033003700d4c2bf00c9
:100d8400644060000004e00003003a0070002000aa
:100d9400000f78002c003700d4c2bf006840600008
:100da4000004e00003003a00a0002000000f7800d7
:100db40025003700c602a800c622a800c642a90022
:100dc400ca02a800ca22a800ca42a90076010700e4
:100dd400d4c2bf00614060000004e00003003a0098
:100de40020002000000f780017003700d4c2bf0095
:100df400624060000004e00003003a00500020005c
:100e0400000f780010003700d4c2bf0064406000b7
:100e14000004e00003003a0080002000000f780086
:100e240009003700d4c2bf00684060000004e0003d
:100e340003003a00b0002000000f780002003700e1
:100e4400f00f2000000f78001e0078000080fa00e8
:100e5400000006000200fa00000f7800c602a90094
:100e6400c622a800c642a800ca02a900ca22a80035
:100e7400ca42a8004c010700d4c2bf006140600010
:100e84000004e00003003a009e00780010c0b300a4
:100e940080487800d4c2bf00624060000004e000d3
:100ea40004003a001e007800e300400010c0b300c4
:100eb40080487800d4c2bf00644060000004e000b1
:100ec40004003a001e007800e600400010c0b300a1
:100ed40080487800d4c2bf00684060000004e0008d
:100ee40004003a001e007800e900400010c0b3007e
:100ef40080487800c602a800c622a900c642a800fd
:100f0400ca02a800ca22a900ca42a80026010700f2
:100f1400d4c2bf00614060000004e00003003a0056
:100f24009e00e80010c0b30080487800d4c2bf001f
:100f3400624060000004e00004003a001e007800f3
:100f4400e400400010c0b30080487800d4c2bf0061
:100f5400644060000004e00004003a001e007800d1
:100f6400e700400010c0b30080487800d4c2bf003e
:100f7400684060000004e00004003a001e007800ad
:100f8400ea00400010c0b30080487800c602a80000
:100f9400c622a800c642a900ca02a800ca22a80004
:100fa400ca42a90000010700d4c2bf00614060002a
:100fb4000004e00003003a009e80e80010c0b30083
:100fc40080487800d4c2bf00624060000004e000a2
:100fd40004003a001e007800e500400010c0b30091
:100fe40080487800d4c2bf00644060000004e00080
:100ff40004003a001e007800e800400010c0b3006e
:1010040080487800d4c2bf00684060000004e0005b
:1010140004003a001e007800eb00400010c0b3004a
:1010240080487800f00f20000080fa0000000600dd
:101034000800fa0000c0eb00204798000000eb0015
:10104400000f78009efe0700c1fc07000000370077
:1010540011ff0700304798003e409000e14f4000e8
:1010640073003200be4090002e40900080cf5000ac
:101074006f0032003e409000204798003e409000b0
:10108400e94f5000480032003e409000ea4f5000c3
:10109400450032003e4090000000fb006101b900b1
:1010a4002207980033079800b000200001002000b8
:1010b4002e019000be019000800f5100818f5900d5
:1010c4002c003e002e009000be0090000060010045
:1010d4000b0037000d0037000f00370011003700f8
:1010e40013003700150037001700370019003700c8
:1010f4001b0037001f0037001e0037001b0037009d
:1011040040192800cdfc07001a0037006019280098
:10111400cafc07001700370080192800c7fc070025
:1011240014003700a0192800c4fc07001100370080
:10113400c0192800c1fc07000e003700e019280080
:10114400befc07000b003700001a2800bbfc070098
:1011540008003700201a2800b8fc070005003700f3
:10116400401a2800b5fc070002003700601a280066
:10117400b2fc0700f10020009e8f100003003a002b
:10118400a8fc07001e0fe800b1ff3700f2012000a1
:101194009e0f110002003a00b6fc0700acff3700b6
:1011a4001e0fe800aaff37003e409000ea4f5000af
:1011b4001a0032001e00e000a5ff320003012000e7
:1011c4009e8f110007003a00f0002000d3fc0700b6
:1011d400801a280099fc0700a6fc07001e0fe900ee
:1011e4009bff3700f00120009e0f100005003a001d
:1011f400801a280091fc07009efc07001e0fe900de
:1012040093ff37009bfc0700801a28008bfc070023
:1012140098fc07001e0fe9008dff37006ffc0700e4
:1012240074fc07000000eb00000f780088ff370013
:10123400be409000214798006b00070084ff3700f0
:101244000000fa00d802a900d822a900d842a900b7
:10125400d862a900d882a900d8a2a9000080fa0007
:10126400000006000400fa00000f78001e00780059
:10127400100798001e009000e20f50001800320082
:101284001e009000e20f500007003e001e00900078
:101294000000e0000e0032001e009000e10f50003c
:1012a4000d003200150037001e009000e40f5000be
:1012b4000f0032001e009000e40f50000a003900b5
:1012c4001e009000e50f50000b0032000b003700a9
:1012d400dc02a80009003700dc22a8000700370060
:1012e400dc42a80005003700dc62a80003003700d8
:1012f400dc82a80001003700dca2a8000080fa000c
:10130400000006000400fa00000f78001e007800b8
:10131400100798001e009000e20f500018003200e1
:101324001e009000e20f500007003e001e009000d7
:101334000000e0000e0032001e009000e10f50009b
:101344000d003200150037001e009000e40f50001d
:101354000f0032001e009000e40f50000a00390014
:101364001e009000e50f50000b0032000b00370008
:10137400dc02a90009003700dc22a90007003700bd
:10138400dc42a90005003700dc62a9000300370035
:10139400dc82a90001003700dca2a9000080fa0069
:1013a4000000060000000600310620008100e9006c
:1013b400feff3a0000000600610c20008100e900f5
:1013c400feff3a0000000600215c20008100e900d5
:1013d400feff3a000000060001002c008100e90035
:1013e400feff3a000000060001002c008100e90025
:1013f400feff3a0001002c008100e900feff3a00e4
:1014040001002c008100e900feff3a000000060004
:020000040000fa
:0414140000000000d4
:00000001FF
